:100000000C9434000C9446000C9446000C9446006A
:100010000C9446000C9446000C9446000C94460048
:100020000C9446000C9446000C9446000C94460038
:100030000C9446000C9446000C9446000C94460028
:100040000C9446000C9446000C9446000C94460018
:100050000C9446000C9446000C9446000C94460008
:100060000C9446000C94460011241FBECFEFD8E03C
:10007000DEBFCDBF21E0A0E0B1E001C01D92A830FD
:10008000B207E1F70E94C0000C94D4000C94000069
:10009000ECE7F0E0808180648083EAE7F0E0808133
:1000A0008760808380818068808380818062808394
:1000B0008081806480830895ECE7F0E09081892B53
:1000C00080838FED9EE20197F1F700C00000089554
:1000D000EAE7F0E0808184FFFDCF80917800909185
:1000E000790008958D32910580F08639910578F078
:1000F000823221E0920768F0823C21E0920758F0BA
:100100008835924050F080E0089581E0089582E0C3
:10011000089583E0089584E0089585E008950E949D
:10012000720090910301891308C0909101019F3FD3
:1001300031F09F5F9093010102C010920101809302
:100140000301909101019F3F11F48093020180917E
:10015000020108950E948F0090910001911105C045
:10016000882319F08093000108958093000180E0B6
:100170000895109203011092020110920101089556
:100180000E94B9000E94480082E00E945C000E9428
:10019000CE000E9468000E94AA00F9CF9FB7F89491
:0C01A000809104019FBF0895F894FFCFE8
:00000001FF
